:020000040800F2
:10000000203200201902000805120008D111000852
:10001000FD11000819080008F12600080000000082
:10002000000000000000000000000000031E0008A7
:10003000B9080008000000005D130008D520000882
:1000400033020008330200083302000833020008BC
:1000500033020008330200083302000833020008AC
:10006000330200083302000833020008330200089C
:10007000330200083302000833020008330200088C
:10008000330200083302000833020008330200087C
:10009000330200083302000833020008330200086C
:1000A000330200083302000833020008330200085C
:1000B0006521000899210008330200083302000876
:1000C000330200083302000833020008330200083C
:1000D00033020008652300083302000833020008D9
:1000E000330200083302000833020008330200081C
:1000F000330200083302000833020008330200080C
:1001000033020008330200083302000833020008FB
:1001100033020008330200083302000833020008EB
:1001200033020008330200083302000833020008DB
:1001300000F002F800F060F80AA090E8000C824499
:100140008344AAF10107DA4501D100F055F8AFF276
:10015000090EBAE80F0013F0010F18BFFB1A43F0A5
:1001600001031847585000007850000010F8013B78
:100170000A4413F0030408BF10F8014B1D1108BF17
:1001800010F8015B641E05D010F8016B641E01F8C5
:10019000016BF9D1002D15D010F8014B03F00C03C1
:1001A0000C2BA1EB04040ABF10F8013BA4EB831451
:1001B000A4EB032405F1010314F8016B5B1E01F8A5
:1001C000016BF9D5914238BF10F8013BD1D370478C
:1001D0000023002400250026103A28BF78C1FBD850
:1001E000520728BF30C148BF0B6070471FB504F0ED
:1001F00016FF1FBD10B510BD00F063F81146FFF7E4
:10020000F5FF02F0B9FB00F081F803B4FFF7F2FF4D
:1002100003BC00F08BF800000948804709480047FC
:10022000FEE7FEE7FEE7FEE7FEE7FEE7FEE7FEE7A6
:10023000FEE7FEE704480549054A064B7047000003
:100240000521000831010008202C00202032002068
:10025000202E0020202E002010B5203AC0F00B8068
:10026000B1E81850203AA0E81850B1E81850A0E8BA
:100270001850BFF4F5AF5FEA027C24BFB1E8185014
:10028000A0E8185044BF18C918C0BDE810405FEA84
:10029000827C24BF51F8043B40F8043B08BF704700
:1002A000D20728BF31F8023B48BF11F8012B28BF05
:1002B00020F8023B48BF00F8012B70477047704799
:1002C0007047754600F028F8AE460500694653466B
:1002D00020F00700854618B020B5FFF7ABFFBDE85A
:1002E00020404FF000064FF000074FF000084FF09D
:1002F000000B21F00701AC46ACE8C009ACE8C0092E
:10030000ACE8C009ACE8C0098D4670470446AFF3BD
:1003100000802046FFF779FF00487047C02B00207F
:1003200001487047704700BFC42B002001491820C6
:10033000ABBEFEE726000200704710B500F074F96E
:1003400000F024FA00F042FA00F0C0F910BD0000FD
:100350002DE9F04700F0F2F9F0B300F0CFF994493D
:10036000944A127841F8220092480078401C914942
:1003700008700846007806282ED1002008708E48A4
:100380000078401C8C49087001F086FC8A4800788F
:10039000012870D18948006804F032FD82464FF090
:1003A000964104F083FE8146854904F071FD804644
:1003B0004FF0964104F016FC0746824904F068FDB0
:1003C0000646814904F00EFC8049086080497F4858
:1003D000006804F030FE00E0C4E010D87D480068FA
:1003E0007D4908600846006802F05AF977480068BD
:1003F00002F06AF901207949A1F8760037E07848DF
:1004000001687248006804F043FD064675480168BB
:10041000304604F079FB054673480078B8B92846A1
:1004200003F0E6FB064671480168304604F06CFBB9
:10043000694908600846006802F032F963480068BC
:1004400002F042F900206549A1F876000FE061480A
:100450000068614908600846006802F021F95B48BD
:10046000006802F031F901205C49A1F8760000F043
:10047000A7F99BE0FFE750480078012872DD4F485C
:10048000006804F0BDFC81464FF0964104F00EFE7A
:1004900080464B4904F0FCFC07464FF0964104F0BF
:1004A000A1FB0646524904F0F3FC04465149524A66
:1004B000127841F8224050480078401C4E4908709C
:1004C00008460078062871D10020087001F00EFC63
:1004D0004A4801684A48006804F0ADFD0ED2494818
:1004E00001684748006804F0D3FC064646480168A6
:1004F000304604F009FB454908600DE04148416879
:100500003F48006804F0C4FC06463F484168304656
:1005100004F0FAFA3D4908603D4801683B4800682C
:1005200004F0F2FA394908602B480168374800683E
:1005300002F004FA37490860374801683548006816
:1005400004F072FC0FD2354801683248006804F0AC
:100550009FFC064632480168304604F0D5FA31491E
:1005600008600EE022E02D4841682A48006804F047
:100570008FFC06462A484168304604F0C5FA2949EE
:1005800008602848006802F063F82248006802F01A
:1005900073F81E48006802F033F81948006802F04A
:1005A00043F800F013F9002003490870BDE8F08714
:1005B0008C1C0020291C0020281C00202C1C002042
:1005C0006F12834000247449000052438C000020C5
:1005D0000080C5447C000020900000206629002097
:1005E0004C000020500000208800002080000020E7
:1005F00000007A44A41C0020341C00207800002055
:10060000A0000020540000205C0000209800002082
:10061000840000209C000020740000206400002062
:100620006C0000209400002000B587B00121152047
:1006300001F0D6F80121080301F0D2F8E020ADF86E
:10064000180003208DF81A0018208DF81B0006A949
:100650001C4800F087FA1020ADF8180003208DF830
:100660001A0010208DF81B0006A9164800F07AFA2F
:100670001021144800F04AFB3020ADF81000002093
:10068000ADF804004FF48270ADF806000020ADF81C
:1006900008000220ADF80A000120ADF80C0040026D
:1006A000ADF80E000020ADF812000720ADF81400E0
:1006B00001A9054801F087FB0121034801F069FB0E
:1006C00007B000BD000801400030014008B52820F7
:1006D0008DF8000002208DF801001021064800F07E
:1006E00013FB02226946684601F042FB10210248D2
:1006F00000F00CFB08BD00000008014038B5582090
:100700008DF8000010210C4800F0FEFA0422694622
:10071000684601F02DFB1021074800F0F7FA9DF81C
:1007200001409DF8020040EA04249DF8030040EADD
:100730000424204638BD00000008014010B5002008
:1007400000F008F810F0800F01D0002010BD01204B
:10075000FCE7000038B5044604F00700402141EAF8
:10076000C0008DF800001021074800F0CDFA0222E9
:100770006946684601F0FCFA1021034800F0C6FA09
:100780009DF8010038BD0000000801401CB5FF20A5
:1007900001901021094800F0B7FA002406E0012278
:1007A000694601A801F0E4FA601C84B20A2CF6DB69
:1007B0001021024800F0AAFA1CBD00000008014008
:1007C00010B51021022000F007F810BD10B511215E
:1007D000022000F001F810BD38B505460C4605F0C2
:1007E0000700002141EAC0008DF8000020128DF8BA
:1007F0000100E0B28DF802001021064800F084FAF2
:1008000003226946684601F0B3FA1021014800F05E
:100810007DFA38BD0008014001E000F089FDFCE7E9
:10082000002122480078042835DD21480078214A3B
:10083000127890422AD11E484078012813D01C48D3
:10084000407802280FD01A48407803280BD0184867
:100850004078042807D016484078052803D014486B
:100860004078062801D1082117E0114840780F2868
:1008700003D00F484078102804D10D48807900F14A
:1008800009010AE00020094A107070470020074A59
:1008900010700120F9E70220F7E704480078884249
:1008A00001D10320F1E70220EFE70000881C0020BF
:1008B00078260020501C0020704700000149C860C5
:1008C000704700000020024030B5A525042400F048
:1008D00091F800B100254FF4302000F0F1F8044603
:1008E000042C3BD11E481F4988601F488860084679
:1008F000006940F0200008610846006940F04000AF
:1009000008614FF4302000F0DBF80446042C1CD1C1
:100910001448006941F6DF71084012490861084631
:10092000006940F010000861104805804FF4005045
:1009300000F0C6F80446052C10D00A48006941F6BC
:10094000EF7108400749086108E0052C06D005480A
:10095000006941F6EF71084002490861204630BD48
:100960002301674500200240AB89EFCD00F8FF1F4F
:1009700030B5044604254FF4302000F0A1F80546B8
:10098000042D17D10C48006940F002000A490861A3
:1009900008464461006940F0400008614FF430208F
:1009A00000F08EF805460448006941F6FD710840E4
:1009B00001490861284630BD0020024004200C494E
:1009C000C96801F00101012901D101200EE00849A7
:1009D000C96811F0040F01D0022007E00449C9687A
:1009E00011F0100F01D0032000E004207047000038
:1009F0000020024000200449C96911F0020F01D013
:100A0000012000E000207047002002400148006AF9
:100A100070470000002002400348006940F0800059
:100A2000014908617047000000200240F0B504460B
:100A30000D4604260027F00200F042F80646042E78
:100A400022D11248006940F0010010490861258058
:100A5000F00200F035F80646042E0ED1A71C280C33
:100A60003880F00200F02CF806460848006941F68C
:100A7000FE7108400549086106E00448006941F636
:100A8000FE710840014908613046F0BD0020024077
:100A900001460020034A106800F038000843106047
:100AA00070470000002002400248034948600348A4
:100AB000486070472301674500200240AB89EFCDB5
:100AC00000B502460423FFF779FF034603E0FFF772
:100AD00075FF0346521E012B01D1002AF7D102B93E
:100AE0000523184600BD08B50090BDF800200A8017
:100AF000BDF802204A8008BD08B501460091009863
:100B000008BD000008B501210C2000F069FE01219C
:100B1000124800F0B1F840F60200ADF800000320E2
:100B20008DF8020010208DF8030069460C4800F093
:100B300019F802210A4800F0E7F84FF4006108486C
:100B400000F0E4F84FF48040ADF8000048208DF844
:100B500003006946024800F005F808BD00023000B5
:100B6000000801402DE9F041024600250026002042
:100B700000230024002791F803C00CF00F0591F822
:100B800003C01CF0100F03D091F802C04CEA050519
:100B9000B1F800C01CF0FF0F31D0146800202BE02A
:100BA0004FF0010C0CFA00F3B1F800C00CEA030698
:100BB0009E4220D183004FF00F0C0CFA03F7BC4388
:100BC00005FA03FC4CEA040491F803C0BCF1280FB9
:100BD00006D14FF0010C0CFA00FCC2F814C00AE078
:100BE00091F803C0BCF1480F05D14FF0010C0CFA8D
:100BF00000FCC2F810C0401C0828D1D31460B1F822
:100C000000C0BCF1FF0F34DD546800202EE000F17D
:100C1000080C4FF0010808FA0CF3B1F800C00CEA18
:100C200003069E4221D183004FF00F0C0CFA03F70C
:100C3000BC4305FA03FC4CEA040491F803C0BCF180
:100C4000280F05D100F1080C08FA0CF8C2F814803E
:100C500091F803C0BCF1480F07D100F1080C4FF028
:100C6000010808FA0CF8C2F81080401C0828CED3FE
:100C70005460BDE8F0810000F0B50A46002300246E
:100C80000021002500F00046B6F1004F02D11D4EB4
:100C9000F16901E01B4E7168C0F3034583B200F4B3
:100CA0004016B6F5401F08D121F07061154E7668E8
:100CB00026F07066134F7E6012E000F48016B6F5E1
:100CC000801F06D1032606FA05F4A14341F07061A6
:100CD00006E0460D360103FA06F6B14341F07061B5
:100CE00022B1460D360103FA06F6314300F0004604
:100CF000B6F1004F02D1034EF16101E0014E716087
:100D0000F0BD000000000140416170470161704783
:100D100038B5634A6349502000F0DEFE6049086838
:100D200001F0F6FA604908605D49486801F0F0FAA0
:100D30005E4908605A49886801F0EAFA5C4908602F
:100D40005749C86801F0E4FA5949486054490869AC
:100D500001F0DEFA574908605149486901F0D8FAB4
:100D6000544948604E49886901F0D2FA52490860F6
:100D70004B49C86901F0CCFA4F4948604849086AB4
:100D800001F0C6FA4D4908604549486A01F0C0FAC9
:100D90004A4948604249886A01F0BAFA48490860FD
:100DA0003F49C86A01F0B4FA464908603C49086BFB
:100DB00001F0AEFA44490860002418E0254604EB2F
:100DC000D47149100D31364A52F82100694601F0BC
:100DD000BFFABDF8000001B23C4A601C22F81010B6
:100DE000BDF8020000B2114621F81400A41C6D2CBD
:100DF000E4DB3648B0F9020035490860084600686F
:100E000018B108460068642801D900F0AFFE2F48E9
:100E1000B0F9040008282DD2DFE800F004090E1311
:100E2000181D22274FF496602A49086022E04FF4EB
:100E30001660284908601DE04FF496502549086067
:100E400018E04FF416502349086013E04FF4964021
:100E5000204908600EE04FF416401E49086009E082
:100E60004FF461401B49086004E04FF4E130194938
:100E7000086000BF00BF0A49D1F8180101F048FA24
:100E8000154908600648D0F81C0114490870044947
:100E9000D1F8200101F03CFA1149086038BD00008A
:100EA000F41C002000F000084C000020500000203E
:100EB000540000205C000020640000206C00002032
:100EC00074000020780000207C00002066290020AB
:100ED00044000020480000208000002088000020FE
:100EE0008400002070B500240025002300265E4801
:100EF000C0785D49897800EB01245B48417900792D
:100F000001EB00256019B0F5967F03D9022000F0AF
:100F1000C1F8A8E04B2C6AD014DC1E2C57D008DC9A
:100F2000012C44D0022C46D00A2C48D0142C6AD173
:100F300049E0282C4FD0322C51D0462C53D0492C8C
:100F400061D158E0862C1ED008DC4C2C57D0702C78
:100F50000DD0762C0FD07C2C55D110E08A2C16D0D9
:100F60008E2C18D0AC2C1AD0B02C4CD11BE0012008
:100F70003E49087047E002203C49087043E00320E6
:100F80003A4908703FE00420384908703BE00520EA
:100F90003649087037E006203449087033E00720EE
:100FA000324908702FE00820304908702BE00120FA
:100FB0002F49086027E001202D49086023E0012027
:100FC0002C4908601FE001202A4908601BE001202D
:100FD0002849086017E001202649086013E0012035
:100FE000244908600FE00120234908600BE001203C
:100FF0002249086007E001202149086003E0012040
:101000002049086000BF00BF10201F4948701F48DA
:10101000007808700420C1F8C002134880788870F6
:101020001148C1781848C1700F48017916480171FC
:101030000D48417914484171002310E05800801D8B
:101040000949891C0A5C5800401D085C02EB002617
:1010500030B2E1180E4A22F81100581CC3B2AB425C
:10106000ECD300F035FA70BDB423002089000020D5
:10107000701C0020741C0020781C00207C1C0020A8
:10108000801C0020841C0020341E0020501C0020E6
:101090006629002000B5024642F0800005494870EC
:1010A0000548007808700020C1F8C00200F010FA6E
:1010B00000BD0000341E0020501C002070B500242C
:1010C000002500232148C0782049897800EB0124BD
:1010D0001E484179007901EB00256019B0F5967F33
:1010E00003D90320FFF7D6FF2FE0032018494870EB
:1010F0001848007808700120C1F8C00200208870EC
:1011000000231EE0E118144A32F8111088B2010AD7
:101110000F4AD2F8C062921C9155921ED2F8C0229A
:10112000521C0B4EB61CB054B11ED1F8C012891C13
:10113000B21EC2F8C0121146D1F8C012491E9170F9
:101140005B1CAB42DED300F0C3F970BDB4230020BA
:10115000341E0020501C00206629002030B50024D9
:10116000002500231648C0781549897800EB012432
:1011700013484179007901EB002506201149487098
:101180001148007808700420C1F8C002B4F5967FB9
:1011900003D30220FFF77EFF0FE028B20B4921F8AE
:1011A0001400002307E00648801CC15C0548801C31
:1011B000C154581CC3B2042BF5DB00F089F930BDD3
:1011C000B4230020341E0020501C0020662900207B
:1011D00001E000F0ADF8FCE770B504460D46002CC8
:1011E00002DCFF2C00DD012403480470284600F0D7
:1011F000EBF800F0B5F870BD501C002001E000F0E5
:1012000097F8FCE7704708B525208DF8000001200D
:101210008DF8010000208DF8020001208DF80300F8
:10122000684600F02DF826208DF8000000208DF88B
:10123000010001208DF802008DF80300684600F0DF
:101240001FF834208DF8000000208DF801000220E6
:101250008DF8020001208DF80300684600F010F8B8
:101260001C208DF8000000208DF8010001208DF871
:1012700002008DF80300684600F002F808BD000087
:1012800070B5002100230F22C4784CB31A4C246897
:1012900004F4E064C4F5E0644FEA1421C1F10403EE
:1012A00022FA01F2447804FA03F1847804EA020491
:1012B00044EA01014FEA0111104C0678A155047867
:1012C00004F01F054FF0010404FA05F405784FEA15
:1012D00065154FF0E02606EB8505C5F8004109E0ED
:1012E000047804F01F050124AC40054D0678761102
:1012F00045F8264070BD00000CED00E000E400E081
:1013000080E100E00848006800F4E060074940EA36
:10131000010000F104004FF0E021C1F80C0DBFF313
:10132000408F00BFFEE700000CED00E00000FA0572
:101330000848006800F4E060074940EA010000F155
:1013400004004FF0E021C1F80C0DBFF3408F00BF47
:10135000FEE700000CED00E00000FA057047000019
:101360001FB50121022000F02BFA48F6A040ADF88D
:1013700008000120ADF804000020ADF80A008DF847
:101380000C00ADF806001D208DF8000001208DF83E
:10139000030001A9074800F05FFF0122114605483C
:1013A00000F04DFF6846FFF76BFF0121014800F098
:1013B00006FF1FBD0004004002480068401C0149B0
:1013C000086070476C1C002010B586B004460121EF
:1013D000052000F005FA0121880300F001FA4FF41E
:1013E0000070ADF8140018208DF8170003208DF858
:1013F000160005A91848FFF7B5FB4FF48060ADF85B
:10140000140004208DF8170003208DF8160005A99C
:101410001148FFF7A7FB01940020ADF80800ADF8D4
:101420000A00ADF80C00ADF810000C20ADF80E006D
:1014300001A90A4801F06EF84021084800F0F8FFC1
:10144000012240F22551054801F03EF801210348F0
:1014500000F0F7FF06B010BD000801400038014061
:1014600010B5044600BF8021044800F0F6FF0028B4
:10147000F9D02146014801F0BEF810BD0038014006
:1014800070B504460D4602211048FFF73FFC64206A
:1014900001F02AFA4FF400610C48FFF735FC04E034
:1014A00014F8010BFFF7DCFF6D1E002DF8D14FF48F
:1014B00000610648FFF72AFC02210448FFF724FCDC
:1014C000642001F011FA012070BD00000008014005
:1014D0000648007808B100207047002004490860E1
:1014E00001200249087000BFF6E700005C1C0020E4
:1014F000541C002010B50B6843400B6008220EE01E
:101500000B6813F0010F06D04AF201040B6884EA5D
:1015100053030B6002E00B685B080B60521E002A4D
:10152000EED110BD06480068FA2806D30020044911
:10153000086004490870012070470020FCE70000A3
:101540006C1C0020881C002010B505480168054867
:10155000FFF796FF002002490860012010BD00003F
:10156000601C0020F8200020024908780021014A70
:1015700011707047691C002030B50025FFF750F945
:101580000546032D33D137480078374908704FF6A8
:10159000FF7036490860344908783449FFF7AAFFDC
:1015A000304840783049487048783049FFF7A2FF0A
:1015B00000202D49C1F8C00202240EE02948015D37
:1015C0002948D0F8C022D0F8C002401C264BC3F8EE
:1015D000C002981C8154601CC4B225480078844223
:1015E000ECDB022023490870002021490870FFF736
:1015F00099FF20480078022832D11B48D0F8C00259
:1016000002282DD31848D0F8C002801E1649C1F810
:10161000C002002407E01449891C085D1349FFF744
:1016200069FF601CC4B21048D0F8C002A042F2D8D2
:101630000D48D0F8C012801C425C801ED0F8C00259
:10164000401C0949891C085C02EB00200749096815
:10165000884202D10120084908700020054908701D
:1016600030BD000078260020B4230020641C002038
:10167000881C0020681C0020691C002010B54FF653
:10168000FF70314908600020304908603048017817
:101690002E4802680068401C2C4B18602D4881546D
:1016A0002B4908782849FFF725FF29484178274822
:1016B00002680068401C254B186026488154244964
:1016C00048782149FFF716FF00202349086019E0F8
:1016D0001F48801C20490968415C1C48026800685A
:1016E000401C1A4B18601B4881541949891C1A4A1E
:1016F0001268885C1449FFF7FDFE17480068401C1B
:10170000154908601248D0F8C00213490968884298
:10171000DED80D4800680D490A680968491C0B4B62
:1017200019600C49885408480068C0F3072019461E
:101730000A680968491C196006498854FFF704FFC4
:1017400000200649087010BD581C0020601C0020B5
:10175000341E0020F8200020541C00205C1C0020B7
:1017600010B51448007808B1FFF788FFFFF704FFB1
:10177000FFF7FAFEE0B11048007810490978884276
:1017800016D10D484078032804D0062805D010282B
:1017900009D105E0FFF792FC09E0FFF7DFFC06E066
:1017A000FFF7A0FB03E00620FFF774FC00BF00BFBB
:1017B00010BD00005C1C0020B4230020501C002041
:1017C00029B1064AD2690243044BDA6104E0034AB4
:1017D000D2698243014BDA61704700000010024079
:1017E00029B1064A92690243044B9A6104E0034A14
:1017F00092698243014B9A617047000000100240D9
:1018000010B500F031F84FF4803000F0EFF800F040
:101810004BF91449087008460078012820D10020AF
:1018200000F0D8F8002000F013F94FF4806000F0C9
:1018300003F94FF4E0114FF4803000F01BF9012060
:1018400000F012F900BF392000F09EF80028FAD00D
:10185000022000F01DF900BF00F0B4F80828FBD109
:1018600010BD0000351C00200F48006840F001004A
:101870000D490860084640680C4908400A4948601C
:10188000084600680A490840074908600846006899
:1018900020F4802008600846406820F4FE0048607C
:1018A0004FF41F0088607047001002400000FFF8EE
:1018B000FFFFF6FE30B500210022002400232D4D4D
:1018C0006D6805F00C0121B1042905D0082923D148
:1018D00005E0294D056022E0274D05601FE0254DFC
:1018E0006D6805F47012234D6D6805F4803402258F
:1018F00005EB92421CB9214D554305600BE01D4D8F
:101900006D6815F4003F03D01C4D5543056002E09F
:10191000194D5543056002E0174D056000BF00BF3B
:10192000144D6D6805F0F0010909154D6B5C0568F3
:10193000DD4045600F4D6D6805F4E061090A104D0A
:101940006B5C4568DD4085600A4D6D6805F460514B
:10195000C90A0B4D6B5C4568DD40C560054D6D687F
:1019600005F44041890B074D6B5CC568B5FBF3F589
:10197000056130BD0010024000127A0000093D00F0
:101980003B1C00204B1C002010B501460022002308
:1019900000204A11012A02D1094C236806E0022ADC
:1019A00002D1074C236A01E0054C636A01F01F0273
:1019B000012494401C4201D0012000E0002010BD11
:1019C000001002400248406800F00C007047000020
:1019D0000010024001460020034A506820F0F00049
:1019E0000843506070470000001002401149096828
:1019F00021F480310F4A11601146096821F48021D9
:101A00001160B0F5803F03D0B0F5802F0ED106E015
:101A10000849096841F48031064A116007E0054928
:101A2000096841F4A021034A116000E000BF00BF33
:101A3000704700000010024001460020034A506831
:101A400020F4E0600843506070470000001002403E
:101A500001460020034A506820F4605040EAC1006B
:101A6000506070470010024001490866704700004E
:101A70000000424202460020044B586820F47C10CB
:101A800042EA01031843014B5860704700100240BE
:101A900001460020034A506820F0030008435060CC
:101AA000704700000010024070B500240025002699
:101AB00000BF3120FFF768FF0646641CB4F5A06F35
:101AC00001D0002EF5D03120FFF75EFF08B10125CF
:101AD00000E00025284670BD30B503460C460020C6
:101AE00005E0256842F82050241D451CA8B2984204
:101AF000F7DB30BD38B50446084830F8140080B232
:101B0000ADF800000549601C31F8100080B2ADF856
:101B10000200684600F07CFA38BD0000662900200B
:101B20000146054B4A1C33F9120000041A4632F9EB
:101B300011201044704700006629002038B5044683
:101B40000D4669462846FEF7CEFFBDF8000000B2FC
:101B5000054921F81400BDF8020001B2024A601CD8
:101B600022F8101038BD00006629002003203B49F0
:101B70008880012048804FF07E50394908604860D5
:101B800000203849086048604FF07E5036490860B0
:101B9000486000203549086048603548354908608C
:101BA0000020354908604FF07E503449086000201D
:101BB000334908603348344908602D495C20FFF7F9
:101BC000BDFF32495E20FFF7B9FF30496020FFF7C3
:101BD000B5FF00202149A1F8B400A1F8B600A1F892
:101BE000C40000216620FFF7A9FF4FF07E51682056
:101BF000FFF7A4FF4FF07E516A20FFF79FFF002000
:101C00001649A1F8C800A1F8CA00A1F8D8004FF001
:101C10007E510620FFF792FF00210820FFF78EFF7C
:101C200000200E490881488116494620FFF786FFAB
:101C300000F0E8F800BF1648006800F4E0601549BD
:101C400040EA010000F104004FF0E021C1F80C0D62
:101C5000BFF3408F00BF00BFFEE7000066290020F1
:101C6000540000205C000020640000206C00002074
:101C70000000E04074000020780000204C000020AC
:101C8000500000200000C8417C000020D7A36C4217
:101C90000CED00E00000FA0530B50020114C216881
:101CA00022682368012015E00E4C54F820408C4235
:101CB00002D30C4C54F820100A4C54F820409442A3
:101CC00002D8084C54F82020064C54F820402344F5
:101CD000441CA0B20628E7DB9C1A641AA408024D33
:101CE0002C6030BD8C1C00202C1C00202DE9F047FE
:101CF00000241C4805680668076801241FE019498C
:101D000051F82400294603F096F902D8154850F8F6
:101D10002450154951F8240003F072F880463146EA
:101D200003F082F802D80F4850F824600D4850F8AC
:101D30002410384602F0E8FE0746601C84B2062CE8
:101D4000DDDB3146384603F0B1F98146294603F020
:101D5000ADF980464FF0814102F044FF034908602D
:101D6000BDE8F087A41C00208C1C0020A0000020EF
:101D70002DE9F04105460E461746002405E0285D92
:101D800000F076FD3055601C84B2BC42F7DBBDE844
:101D9000F08121B1028842F04002028004E0028812
:101DA0004FF6BF731A400280704702460020138925
:101DB0000B4201D0012000E00020704701468889D5
:101DC00070478181704710B50022028802F44152A9
:101DD0000B884C8823438C882343CC8823430C896D
:101DE00023434C8923438C892343CC8923431A43BF
:101DF0000280838B4FF2FF74234083830B8A03821C
:101E000010BD704770B53F480068FEF775FE3E494B
:101E100008603E480068FEF76FFE3B4948603C4959
:101E20000868FEF769FE3849886039494868FEF756
:101E300063FE3549C86037490868FEF75DFE3249E0
:101E4000086134494868FEF757FE2F494861324916
:101E50000868FEF751FE2C4988612F494868FEF753
:101E60004BFE2949C8612D490868FEF745FE264901
:101E700008622A494868FEF73FFE2349486228481D
:101E80000068FEF739FE2049886226480068FEF7A0
:101E900033FE1D49C86224480068FEF72DFE1A492A
:101EA0000863002413E0214A32F8142091B21F4B3A
:101EB000621C33F8122090B200F020FA254604EBA1
:101EC000D47149100D31104A42F82100A41C6D2C28
:101ED000E9DB17480068FEF70FFE0B49C1F818014F
:101EE00014480078C1F81C0113480068FEF704FE8E
:101EF0000549C1F820010A461049502000F0FCFBBA
:101F000070BD00004C000020F41C00205000002098
:101F1000540000205C000020640000206C000020C1
:101F200074000020780000207C000020662900203A
:101F300080000020880000208400002000F00008BD
:101F400010B500F001F810BD002100202E4A1268E3
:101F500042F480322C4B1A6000BF2B4A126802F404
:101F60000030491C10B9B1F5A06FF6D1264A1268AD
:101F700012F4003F01D0012000E00020012842D1EE
:101F8000224A126842F01002204B1A601A46126868
:101F900022F003021A601A46126842F002021A6026
:101FA000194A5268184B5A601A4652685A601A46C3
:101FB000526842F480625A601A46526822F47C12D7
:101FC0005A601A46526842F4E8125A601A46126879
:101FD00042F080721A6000BF0B4A126812F0007F54
:101FE000FAD0094A526822F00302074B5A601A4697
:101FF000526842F002025A6000BF034A526802F07F
:102000000C02082AF9D1704700100240002002405B
:1020100038B504462088ADF800006088ADF80200AD
:102020000749009803F007F801D2002038BD0549A0
:10203000009802F0F9FE01D20020F7E70098F5E7DA
:1020400000504347005043C7042808D14FF0E02117
:10205000096941F004014FF0E022116107E04FF0FF
:10206000E021096921F004014FF0E022116170477D
:10207000012808D14FF0E021096941F001014FF03A
:10208000E02211610EE0811C08D14FF0E0210969C6
:1020900021F001014FF0E022116103E000214FF037
:1020A000E0229161704710B5014600220023002014
:1020B000CB10022B03D14FF0E024226902E04FF055
:1020C000E024E26901248C40144201D0012000E0A8
:1020D000002010BD704740B14FF0E021096941F088
:1020E00002014FF0E022116107E04FF0E0210969A1
:1020F00021F002014FF0E022116170474FF0E02122
:102100004861704710B51348006840F0010011495C
:10211000086008464068104908400E494860084673
:1021200000680E4908400B4908600846006820F422
:10213000802008600846406820F4FE0048604FF4A4
:102140001F008860FFF7FCFE4FF000600449086044
:1021500010BD0000001002400000FFF8FFFFF6FE77
:1021600008ED00E010B50121880700F057F868B1CC
:102170000121880700F020F805480088401C044928
:1021800008800448007808B1FEF7E2F810BD0000AE
:102190003E0000204100002010B50121054800F05C
:1021A0003DF8012805D10121024800F005F8FFF7AC
:1021B00003F910BD00040040CA430282704721B1F8
:1021C000028842F00102028004E002884FF6FE73AA
:1021D0001A40028070470EB501210846FFF7F0FA59
:1021E00041F61F40ADF800000020ADF8020063206A
:1021F000ADF804000020ADF806008DF8080069462F
:102200004FF0804000F028F801218807FFF7D7FF42
:1022100001221146900700F012F80EBD30B50246BB
:10222000002000230024158A05EA0103958905EAA8
:10223000010413B10CB1012000E0002030BD10B545
:102240001AB183890B43838104E08389CC43A4B210
:102250002340838110BD0000002202881D4B98425C
:102260000ED01D4B98420BD0B0F1804F08D01B4BC5
:10227000984205D01A4B984202D01A4B984204D18A
:102280004FF68F731A404B881A43174B984207D06A
:10229000164B984204D04FF6FF431A40CB881A439E
:1022A00002808B8883850B8803850A4B98420BD06C
:1022B000094B984208D00E4B984205D00D4B9842DE
:1022C00002D00D4B984201D10B7A03860123838201
:1022D00070470000002C0140003401400004004021
:1022E00000080040000C00400010004000140040B6
:1022F00000400140004401400048014008B502464A
:1023000010B2ADF8000008B2ADF80200009808BDA8
:1023100038B504460094009820F00041C1F1FF4117
:10232000C90F09B1002038BD0749009802F083FEAB
:1023300001D20020F7E70549009802F075FD01D2AF
:102340000020F0E70098EEE700504347005043C7F5
:1023500008B50090BDF800200A80BDF802204A8030
:1023600008BD000010B540F225512B4800F082F85E
:1023700001284FD1284800F039F9C4B22748006835
:1023800084420CD12648007848B926482449097867
:10239000445423480078401C2149087029E0204813
:1023A0000078012814D1032C01D0102C0CD11D4829
:1023B0001B49097844541A480078401C1849087091
:1023C00001201949087014E000201549087010E038
:1023D0001548007801280CD111480078012808DD43
:1023E00010480F49097844540D480078401C0C49A6
:1023F00008700B480078322804DD00200849087076
:102400000949087000200949086040F22551024836
:1024100000F00EF810BD000000380140440000201C
:10242000881C002078260020891C00206C1C0020BD
:1024300001F40072B2F5007F00D100BFCA430280F0
:10244000704721B1828942F40052828104E082897E
:102450004DF6FF731A408281704702460020B1F5A5
:10246000007F00D100BF13880B4201D0012000E0A3
:102470000020704770B5024600240023002500208C
:10248000A1F510666A3E00D100BFC1F3421501F00C
:102490001F03012606FA03F3012D02D1968933406A
:1024A00006E0022D02D1168A334001E0968A3340BD
:1024B0000C12012606FA04F41688344013B10CB14C
:1024C000012000E0002070BDF0B503460024002686
:1024D00000250020A1F510676A3F00D100BF184613
:1024E000C1F3421401F01F06012707FA06F5012C7B
:1024F00001D10C3004E0022C01D1103000E0143086
:102500001AB107682F43076002E00768AF4307600E
:10251000F0BD00002DE9F04786B005460E460024C8
:10252000A24600BFA1460027B08900B100BF2F46D8
:102530002C8A4CF6FF700440F08804432C82AC894E
:102540004EF6F3100440B08831890843718908437E
:102550000443AC81AC8A4FF6FF400440B089044389
:10256000AC8201A8FFF7A6F91F48874202D1DDF827
:1025700010A001E0DDF80CA0A88910F4004F08D0ED
:102580000AEBCA0000EB0A1031684900B0FBF1F811
:1025900007E00AEBCA0000EB0A1031688900B0FBC3
:1025A000F1F86420B8FBF0F004012009642101FB7C
:1025B0001089A88910F4004F08D0322000EBC90020
:1025C000B0FBF1F000F00700044308E0322000EB1C
:1025D00009106421B0FBF1F000F00F0004432C81DE
:1025E00006B0BDE8F0870000003801400146888849
:1025F000C0F308007047C1F30802828070470000F2
:1026000038B5044669462046FEF76DFABDF800006D
:1026100000B20449A1F87200BDF8020000B2A1F8AE
:10262000740038BD6629002038B504466946204646
:10263000FEF759FABDF8000000B20449A1F8820083
:10264000BDF8020000B2A1F8840038BD6629002060
:1026500038B5044669462046FEF745FABDF8000045
:1026600000B20449A1F86A00BDF8020000B2A1F866
:102670006C0038BD6629002038B5044669462046FE
:10268000FEF731FABDF8000000B20449A1F87A0063
:10269000BDF8020000B2A1F87C0038BD6629002018
:1026A00038B5044669462046FEF71DFABDF800001D
:1026B00000B20449A1F86E00BDF8020000B2A1F812
:1026C000700038BD6629002038B5044669462046AA
:1026D000FEF709FABDF8000000B20449A1F87E0037
:1026E000BDF8020000B2A1F8800038BD66290020C4
:1026F00001E0FEF71DFEFCE72DE9F04105460E4620
:1027000017460220FEF7C4F904204C490870012046
:102710004B49087000204B490860FEF7C5F90220BC
:10272000494908603420FEF7C9F8FEF76FF94749B8
:1027300008600846006800F0C00045490860084687
:102740000068B0B9FEF7C0F83C49087000BF4148C6
:10275000006800F4E060404940EA010000F1040034
:102760004FF0E021C1F80C0DBFF3408F00BF00BF58
:10277000FEE737480068F0B33520FEF79FF80020E9
:10278000304908600EE02F490968344A131403FBEE
:102790000120FEF7EDF8294908702A480068401C1E
:1027A000284908602748006827490968884203D2F9
:1027B000224800780428E6D02948066012E0002468
:1027C0000DE057F8241026480068FEF72FF91B4942
:1027D000087023480068001D21490860641CAC4251
:1027E000EFDB00BF1E4800681E49884205D213482F
:1027F0000078042800E01EE0E1D0FEF70DF917484C
:10280000174908600EE01648006800681649096814
:10281000884202D000200A49087011480068001D53
:102820000F4908600E4800681049884203D20448E6
:1028300000780028E7D1BDE8F0810000B401002055
:10284000B5010020A8000020B0010020B801002040
:10285000BC0100200CED00E00000FA0500F00008CB
:10286000AC000020FFFF0008B000002000F10008CD
:1028700010B5044600BF02210948FFF796FA002868
:10288000F9D021460648FFF79CFA00BF0121044811
:10289000FFF78BFA0028F9D00148FFF78FFA10BD37
:1028A0000030014000B585B06846FFF703F86FF0CF
:1028B0000400FFF7C9FB0020FFF70DFC0749019852
:1028C000B0FBF1F0064908704FF4FA510198B0FBE3
:1028D000F1F00449088005B000BD000000127A0044
:1028E000361C0020381C002070B5044611480088B2
:1028F00000FB04F5B5F1807F01D36FF07F452846DA
:10290000FFF7FCFB0020FFF7B3FB0120FFF7B0FB54
:1029100000BF1020FFF7C7FB074908700846007882
:102920000128F6D1C01EFFF7A3FB0020FFF7A0FB94
:1029300070BD0000381C00203A1C00202DE9F04139
:1029400004460D462946094802F0DEF807460849C4
:1029500002F09EFA06463146204602F043F9074649
:10296000044902F099FBBDE8F08100007B948843A4
:102970005F294B3E0000E04092B0FEF741FFFFF7B9
:1029800091FFFDF7DAFCFEF7BDF8FFF724FCFEF738
:102990003AFCFEF7BDF9F8480168F8480068C0B293
:1029A000FEF71AFC0020F64908802AE1F548006885
:1029B00040B91420FFF798FFF248006810B90120D1
:1029C000F1490870F0480078C0B10020EE49087065
:1029D0000320EE49888001204880ED48ED490860D9
:1029E00001464620FFF7AAF80020EB490870E749A6
:1029F000A1F89600FFF706FAFEF784FCE04800888D
:102A0000642809DB0020DE490880E44800686FEA9A
:102A10000000E349C1F88401FEF7A2FE6420FFF73D
:102A200063FFE0480068012803D1FFF7EBF9FEF7E8
:102A300069FCDD480068012804D1FFF7E3F90020B4
:102A4000D9490860D9480068012809D14620FFF714
:102A500051F8D04908600020D4490860FFF7D2F946
:102A6000D3480068012809D1C848B0F89600CA497F
:102A700008700020CE490860FFF7C4F9CD4800680F
:102A8000012809D14920FFF735F8CB49086000201B
:102A9000C8490860FFF7B6F9C8480068012809D19D
:102AA0004C20FFF727F8C64908600020C34908609A
:102AB000FFF7A8F9C348007809285ED2DFE800F0E4
:102AC0005C0513212F38414A5300BF480168742028
:102AD000FFF734F8BD4801687220FFF72FF8002097
:102AE000B849087049E0B84801687A20FFF726F82D
:102AF000B64801687820FFF721F80020B149087036
:102B00003BE0B14801688020FFF718F8AF48016842
:102B10007E20FFF713F80020AA4908702DE0AC488A
:102B200001688820FFF70AF80020A649087024E011
:102B3000A74801688C20FFF701F80020A149087020
:102B40001BE0A34801689020FEF7F8FF00209D4994
:102B5000087012E09F480168AE20FEF7EFFF0020EA
:102B60009849087009E09B480168B220FEF7E6FF2B
:102B700000209449087000E000BF00BF8348B0F80F
:102B80004001F0B38148B0F9400140F2D572811A9A
:102B900090427ED014DC40F2D172A0EB0201904250
:102BA00078D008DCA0F54070E93874D0A0F540700A
:102BB000E73871D10DE001296FD002296CD1A7E26D
:102BC00001296BD002296AD0052969D0062963D171
:102BD000F2E39420FEF7A4FF1190119890B9002021
:102BE0006A49A1F82C0100216848A0F830110020A2
:102BF0006649A1F834014FF47A716448A0F8441191
:102C0000A7E0F4E39620FEF775FF0F909820FEF7FB
:102C100071FF0E909A20FEF76DFF0D900F9801F056
:102C200047FF00226C4BCDE90A0101F015FE09D3E4
:102C30000F9801F03DFF0022684BCDE90A0101F039
:102C4000D1FC10D200205149A1F82C0100214F489D
:102C5000A0F8301100204D49A1F8340140F2E930CC
:102C6000A1F8440174E05E490E9802F0DDF80ED33D
:102C70005C490E9802F0DFF909D359490D9802F02A
:102C8000D3F804D357490D9802F0D5F915D2002096
:102C900007E092E366E0F3E339E264E1F1E3F1E3B4
:102CA000F1E33A49A1F82C01A1F83001A1F834016F
:102CB00040F2EA30A1F844014AE0002010900CE014
:102CC00010989430314931F8101010985A302F4A2A
:102CD00022F810101098401C109010980828EFDB74
:102CE0002A48B0F840012949A1F8C4000120A1F800
:102CF00044013D490F9808603C480F9902F0D6F90D
:102D00003B49086039480F9902F0D0F938494860CA
:102D10000E9801F0CDFE374A374BCDE9080101F09E
:102D2000F1FACDE90A0101F009FA344908600D9879
:102D300001F0BEFE2F4A304BCDE9080101F0E2FA66
:102D4000CDE90A0101F0FAF92C494860FFF75AF879
:102D500000BF00200D49A1F82801A1F82A01A1F81F
:102D60004001D4E16E20FEF7DBFE1190119810B9FE
:102D70006E2010904CE054E04800002044000020F9
:102D80003E0000203801214240000020662900203A
:102D90000000C8417C0000208800002084012142FE
:102DA00000002142701C0020741C0020781C0020B0
:102DB0007C1C0020801C002080000020841C00203F
:102DC00084000020890000209C000020900000204A
:102DD000A00000208C0000200000214000001640D0
:102DE000000020420000A042740000200000E040EB
:102DF0006C00002014AE47E17A944D40640000203E
:102E00000021FF4A109822F810101098401C1090D2
:102E100010988228F4DB4FF47A70F949A1F8440144
:102E20009CE07020FEF766FE0F907420FEF762FEB5
:102E30000E90F4480C900B90F34801680F9800F046
:102E400021FE0F90DDE90E0102F030F9EF490A9002
:102E500001F05AFE0D900D9801F02AFE0022EC4B75
:102E6000CDE9080101F0F8FC09D30D9801F020FE2E
:102E70000022E84BCDE9080101F0B4FB05D240F295
:102E8000E930DF49A1F8440167E0E3490C9801F01B
:102E9000CBFF0ED3E1490C9802F0CDF809D3DE49FF
:102EA0000B9801F0C1FF04D3DC490B9802F0C3F882
:102EB00005D240F2EA30D249A1F844014DE0D048B1
:102EC00080300146B1F85C1081860146B1F85E1091
:102ED000C1865C200D99FEF731FE5E200C99FEF74D
:102EE0002DFE60200B99FEF729FEC548B0F8400181
:102EF000C349A1F8C4000120A1F84401C8490D98B4
:102F00000860C2480D9902F0D1F8C6490860BF4870
:102F10000D9902F0CBF8C34948600C9801F0C8FD48
:102F2000C14AC24BCDE9060101F0ECF9CDE9080137
:102F300001F004F9BE4908600B9801F0B9FDBA4AE6
:102F4000BA4BCDE9060101F0DDF9CDE9080101F048
:102F5000F5F8B7494860FEF755FF00BF0020A849C3
:102F6000A1F84001D3E06E20FEF7DAFD1190119830
:102F700098B96E20109007E00021A14A109822F81D
:102F800010101098401C109010988228F4DB4FF419
:102F90007A709B49A1F84401B5E07020FEF7AAFDC4
:102FA0000F907420FEF7A6FD0E907620FEF7A2FD8E
:102FB0000D907A20FEF79EFD0C90934801680F98C3
:102FC00000F060FD0F90904801680D9800F05AFDE8
:102FD0000D900E990C9801F0C7FE08D10020884989
:102FE000A1F8400140F2EB30A1F844018FE00E99C6
:102FF0000C9802F05BF806900F990D9802F056F8C5
:103000000590069901F0EEFD0B900E990B9801F0DA
:103010003FFF06900F9902F03FF80A907B480A990B
:1030200002F044F806900B9901F0DCFD0990754818
:103030000B9901F02DFF089072480B9901F028FFC1
:103040000790099801F034FD0022714BCDE904018D
:1030500001F002FC09D3099801F02AFD00226D4B12
:10306000CDE9040101F0BEFA05D240F2E93064492D
:10307000A1F8440146E06849089801F0D5FE0ED356
:103080006649089801F0D7FF09D36349079801F012
:10309000CBFE04D36149079801F0CDFF05D240F281
:1030A000EA315748A0F844112CE0554880300146D9
:1030B000B1F85C1081860146B1F85E10C1865C20D3
:1030C0000999FEF73BFD5E200899FEF737FD602069
:1030D0000799FEF733FD4A48B0F84011A0F8C41034
:1030E0000121A0F844114E49099808604D490A98F9
:1030F00008600A9848604E490B9808600B98486031
:10310000FEF780FE00BF00203D49A1F840014BE2E0
:103110006E20FEF705FD1190119898B96E20109061
:1031200007E00021364A109822F810101098401C31
:10313000109010988228F4DB4FF47A703049A1F88F
:10314000440134E17020FEF7D5FC0F907420FEF7A7
:10315000D1FC0E907620FEF7CDFC0D907A20FEF784
:10316000C9FC0C907C20FEF7C5FC0B908020FEF77C
:10317000C1FC0A90244801680F9800F083FC0F906E
:10318000214801680D9800F07DFC0D901E480168F3
:103190000B9800F077FC0B900E990C9801F0E4FD71
:1031A00009D00C990A9801F0DFFD04D00E990A9815
:1031B00001F0DAFD08D100211148A0F8401140F2D9
:1031C000EB31A0F84411EFE10D990F9801F033FFB6
:1031D0000BD20F9802900D980F9002980D900E98B8
:1031E00002900C980E9002980C900B990F9801F099
:1031F00022FF26D20F9802900B980F90029819E0A8
:1032000066290020D7A36C42900000200000E04017
:103210000000214000001640000020420000A042B3
:10322000740000206C00002014AE47E17A944D40F9
:10323000640000200B900E9802900A980E9002985D
:103240000A900B990D9801F0F6FE0BD20D980290A2
:103250000B980D9002980B900C9802900A980C9085
:1032600002980A900E990C9801F020FF01900F9996
:103270000D9801F01BFF0090019901F0B3FC09903B
:103280000E99099801F004FE01900F9901F004FFD6
:1032900008900C990A9801F009FF01900D990B987C
:1032A00001F004FF0090019901F09CFC04900C993E
:1032B000049801F0EDFD01900D9901F0EDFE0390F1
:1032C000FF48089901F0F2FE0190099901F08AFC8B
:1032D0000790FC48099901F0DBFD0690F948049934
:1032E00001F0D6FD0590079801F0E2FB0022F64BB5
:1032F000CDE9000101F0B0FA09D3079801F0D8FB3D
:103300000022F24BCDE9000101F06CF905D240F248
:10331000E931EF48A0F8441148E0EE49069801F081
:1033200083FD0ED3EC49069801F085FE09D3E949E7
:10333000059801F079FD04D3E749059801F07BFE7B
:1033400005D240F2EA31E248A0F844112EE0E0480C
:1033500080300146B1F85C1081860146B1F85E10FC
:10336000C1865C200799FEF7E9FB5E200699FEF70F
:10337000E5FB60200599FEF7E1FBD548B0F8400178
:10338000D349A1F8C4000121D148A0F84411D34980
:1033900007980860D2490998086004984860D149A4
:1033A0000898086003984860FEF72CFD00BF0020D5
:1033B000C749A1F840013AE3DEE28420FEF7B0FB02
:1033C00011901198A0B98420109007E00021C04A04
:1033D000109822F810101098401C10901098922805
:1033E000F4DB4FF47A71BA48A0F8441143E01FE3CC
:1033F0008620FEF77FFB0F908820FEF77BFB0E9068
:10340000DDE90E0101F052FE0D904FF07E500C9060
:103410000B90AF48803000F180010989A0F8481076
:1034200000F180014989A0F84A1066200D99FEF745
:1034300085FB68200C99FEF781FB6A200B99FEF74B
:103440007DFBA348B0F84001A149A1F8D8000121B3
:103450009F48A0F84411A4490D980860A3490D980D
:1034600008600D984860A2490C9808600B98486065
:10347000FEF7C8FC00BF00209549A1F84001D6E244
:10348000C6E101E091E061E28420FEF749FB119082
:10349000119898B98420109007E000218C4A109868
:1034A00022F810101098401C109010989228F4DB0D
:1034B0004FF47A708649A1F8440171E08620FEF746
:1034C00019FB0F908820FEF715FB0E908A20FEF75F
:1034D00011FB0D908C20FEF70DFB0C900C990E98B3
:1034E00001F042FC08D100207949A1F8400140F2E6
:1034F000EB30A1F844019AE20E990C9801F0D6FD48
:1035000006900F990D9801F0D1FD0590069901F0F4
:1035100069FB0B900E990B9801F0BAFC06900F997D
:1035200001F0BAFD0A900A9880F0004006900B99CD
:1035300001F058FB09900B9808900B98079064488D
:10354000803000F180010989A0F8481000F1800165
:103550004989A0F84A1066200999FEF7EFFA682019
:103560000899FEF7EBFA6A200799FEF7E7FA584840
:10357000B0F840015649A1F8D8000120A1F8440153
:1035800059490998086059490A9808600A9848609A
:1035900057490B9808600B984860FEF733FC00BF52
:1035A00000204B49A1F8400141E28420FEF7B8FA1F
:1035B0001190119898B98420109007E00021444A96
:1035C000109822F810101098401C10901098922813
:1035D000F4DB4FF47A703E49A1F8440113E18620F0
:1035E000FEF788FA0F908820FEF784FA0E908A2062
:1035F000FEF780FA0D908C20FEF77CFA0C908E205E
:10360000FEF778FA0B909020FEF774FA0A900C9966
:103610000E9801F0A9FB09D00A990E9801F0A4FBBD
:1036200004D00C990A9801F09FFB09D10021284889
:10363000A0F8401140F2EB302549A1F84401F6E131
:103640000D990F9801F0F0FB0BD20F9802900D9896
:103650000F9002980D900E9802900C980E90029880
:103660000C900B990F9801F0DFFB0BD20F98029092
:103670000B980F9002980B900E9802900A980E905B
:1036800002980A900B990D9801F0CEFB0BD20D9881
:1036900002900B980D9002980B900C9802900A984B
:1036A0000C9002980A900E990C9801F0FFFC019082
:1036B0000F990D9801F0FAFC009001991AE00000B2
:1036C0000000E040D7A36C420000214000001640FB
:1036D00066290020000020420000A0427400002063
:1036E000640000206C000020780000205C000020B6
:1036F0005400002001F076FA09900E99099801F023
:10370000C7FB01900F9901F0C7FC08900C990A982B
:1037100001F0CCFC01900D990B9801F0C7FC0090D2
:10372000019901F05FFA04900C99049801F0B0FB44
:1037300001900D9901F0B0FC0390089880F00040D2
:103740000190099901F04EFA0790099806900498A3
:103750000590B849079801F06EFC04D3B649079864
:1037600001F062FB05D240F2E931B448A0F84411FF
:1037700048E0B349069801F057FB0ED3B1490698CB
:1037800001F059FC09D3AE49059801F04DFB04D373
:10379000AC49059801F04FFC05D240F2EA30A74948
:1037A000A1F844012EE0A548803000F1800109898C
:1037B000A0F8481000F180014989A0F84A1066205D
:1037C0000799FEF7BBF968200699FEF7B7F96A205A
:1037D0000599FEF7B3F99948B0F84011A0F8D81050
:1037E0000121A0F844119849079808609749089862
:1037F00008600398486096490998086004984860F2
:10380000FEF700FB00BF00208C49A1F840010EE14B
:10381000AA20FEF785F91190119898B9AA20109066
:1038200007E00021854A109822F810101098401CDB
:1038300010901098B428F4DB4FF47A707F49A1F807
:1038400044017EE0AC20FEF755F90F90AE20FEF764
:1038500051F90E90B020FEF74DF90D90B220FEF711
:1038600049F90C9000210F9801F07EFA09D000214F
:103870000D9801F079FA04D00C990E9801F074FAC1
:1038800008D100206D49A1F840014FF47B70A1F8E8
:103890004401CCE00E990C9801F008FC09900F99B6
:1038A0000D9801F003FC0890099901F09BF90B9029
:1038B0000E990B9801F0ECFA09900F9901F0ECFBCE
:1038C0000A905C490A9801F0B6FB04D35A490A9859
:1038D00001F0AAFA05D240F2E9305849A1F84401B2
:1038E0002EE057490B9801F09FFA04D355490B98E5
:1038F00001F0A1FB05D240F2EA315048A0F8441192
:103900001EE04E4901F58070B0F85400088101F5C1
:103910008070B0F85600488106200B99FEF70EF92A
:1039200008200A99FEF70AF901204449A1F8440148
:1039300048490B98086048490A980860FEF762FAFF
:1039400000BF00203D49A1F8400170E003203B4941
:10395000888001204880414841490860014646204E
:10396000FEF7ECF800203F4908703449A1F89600B2
:10397000FEF748FAFDF7C6FC4FF07E503A49086062
:103980004860002039490860486039483949086072
:103990004FF07E502F49086000202F4908603449BD
:1039A0005C20FEF7CBF834495E20FEF7C7F83249B9
:1039B0006020FEF7C3F800202049A1F8B400A1F868
:1039C000B600A1F8C40000216620FEF7B7F84FF05A
:1039D0007E516820FEF7B2F84FF07E516A20FEF764
:1039E000ADF800201549A1F8C800A1F8CA00A1F857
:1039F000D8004FF07E510620FEF7A0F800210820E5
:103A0000FEF79CF800200D49088148811B49086099
:103A100000214920FEF792F8002019490860002192
:103A20004C20FEF78BF8FEF7EDF9FDF76BFC00BFBD
:103A3000FEF7BCBF00004843000048C366290020D1
:103A4000000020C100002041780000205C00002020
:103A5000540000204C000020500000200000C8410D
:103A60007C00002088000020640000206C00002002
:103A70000000E04074000020D7A36C4280000020CA
:103A8000840000202DE9F04F8DB080460F464FF0A6
:103A900000092422514904A8FCF7DEFB002600257A
:103AA0004046049901F0F8FA82464046049901F034
:103AB000F3FA8346514601F0EBF90390012429E023
:103AC00004A850F82410404601F0E6FA834604A802
:103AD00050F82410404601F0DFFA5946029001F0F8
:103AE000D7F98246039901F09FF912D204A850F841
:103AF0002410404601F0D0FA824604A850F8241061
:103B0000404601F0C9FA8346514601F0C1F90390DD
:103B10002646641C092CD3DB012411E0601E304AC8
:103B200052F82010384601F086FA08D82C4850F890
:103B30002410384601F078F901D2651E02E0641CB9
:103B40000C2CEBDB00BF0021384601F06DF905D2EB
:103B5000244850F826000DB0BDE8F08F22493846C1
:103B600001F069FA03D8214850F82600F3E71C4A0F
:103B700052F8251013466A1C53F8220001F096FAF9
:103B80000290174850F82510384601F08FFA05EBDF
:103B9000C502144B03EB8202019052F826106A1CF6
:103BA00002EBC20203EB820252F8260001F07EFA19
:103BB0000090019901F06CF98346029901F012F826
:103BC000824605EBC500074A02EB800050F826103C
:103BD000504600F099FF81464846BCE798510008DE
:103BE00070030020C00100200000B4424C030020FC
:103BF0002DE9F14F8AB04FF00008FF490A9801F013
:103C000013F902D8DFF8F4838DE2FD490A9801F038
:103C100012FA02D8DFF8EC8385E2FB490A9801F03A
:103C200003F97ED2F9490A9801F005FA7AD83226CA
:103C3000D2E006EB8600F64A52F830100A9801F0FE
:103C4000FAF970D8701C00EB8000F14A52F830107D
:103C50000A9801F0E9F866D200200890002770E089
:103C600006EB8600EA4A02EBC00050F827100A98DB
:103C700001F0E1F964D806EB8600E54A02EBC002E8
:103C8000781C52F820100A9801F0CEF858D206EBB2
:103C90008602DF4B03EBC20252F8271006EB8602C6
:103CA00003EBC2037A1C53F8220001F0FFF98146AE
:103CB00006EB8600D64A02EBC00050F827100A989F
:103CC00001F0F4F98246494600F08CFF0546D149DF
:103CD00001F0DEF8044600F0EBFECDE904013846C1
:103CE00000F068FC8146CC4ACC4B00F0B7FC04469F
:103CF0000D46304601F06CF88346C94900F004FFD8
:103D000082464FF07E5101F0D1F9814600F0D0FE9D
:103D100022462B46CDE9000100F042FACDE902012E
:103D200002E037E15CE056E0DDE9042300F038FA18
:103D3000CDE9060100F002FA80460120089002E079
:103D40007F1C092F8CDB00BF0898E8BB06EB8602BE
:103D5000AF4B03EBC202516A721C02EB820253F8B2
:103D6000320001F0A3F9834606EB8600A84A02EB75
:103D7000C000416A0A9801F099F95946039000F091
:103D800031FF0546A34901F083F8044600F090FE98
:103D9000CDE90401304601F01BF8A149029000F082
:103DA000B3FE4FF07E51039001F080F9834600F09E
:103DB0007FFE04469B4A9C4B00F0F2F98146DDE908
:103DC000042300F0EDF900E004E0CDE9060100F085
:103DD000B5F9804603E0761C962EFFF62AAFD8E0B0
:103DE00092490A9801F027F90DD290490A9801F0FA
:103DF0005DF905468E4900F0F5FE04468D4900F058
:103E000083FE8046C5E00026BFE006EB8600804AC0
:103E100052F830100A9801F00EF97ED2701C00EBB7
:103E200080007B4A52F830100A9800F0FDFF74D8E9
:103E30000020089000275FE0701C00EB8000744AAF
:103E400002EBC00050F827100A9800F0EDFF52D89E
:103E5000701C00EB80006E4A02EBC002781C52F826
:103E600020100A9801F0E7F845D2721C02EB82029A
:103E7000674B03EBC20252F82710721C02EB82025E
:103E800003EBC2037A1C53F8220001F00FF98146BC
:103E9000701C00EB80005E4A02EBC00050F8271057
:103EA0000A9801F003F98246494600F09BFE054658
:103EB000584900F0EDFF044600F0FAFDCDE9040199
:103EC000384600F077FB8146534A544B00F0C6FB5E
:103ED00004460022584B00F0F5FCCDE90201DDE973
:103EE000042300F0FBFCCDE9060100F027F9804631
:103EF0000120089002E07F1C092F9DDB00BF08987D
:103F0000E8BB721C02EB8202414B03EBC202516A16
:103F100006EB860253F8320000E035E001F0C6F807
:103F20008346701C00EB8000394A02EBC000416AF6
:103F30000A9801F0BBF85946039000F053FE05467D
:103F4000344900F0A5FF044600F0B2FDCDE90601BA
:103F5000304600F03DFF3249039000F0D5FD834626
:103F600000F0A6FD04462F4A2F4B00F0B7FCCDE928
:103F70000401DDE9062300F0B1FC814600E002E027
:103F800000F0DCF8804603E0761C322EFFF63DAFF1
:103F900000BFC8E00024C1E004EB8400274A52F8C7
:103FA00030100A9801F047F87ED8601C00EB8000C2
:103FB000224A52F830100A9800F036FF74D20026D8
:103FC000002577E004EB84001C4A02EBC00050F8A7
:103FD00025100A9801F02FF86BD804EB8400174ADB
:103FE00002EBC002681C52F820100A9800F01CFF77
:103FF0005FD204EB840223E008C44844000048C2B6
:1040000008A8C44400001643C321AD4400007A440C
:10401000A0030020CDCCCC3D9A9999999999B93FAC
:10402000000044C2CDCCCCCCCCCCEC3FD305794401
:10403000002D7A40000080BF000048C0381B0020DF
:104040003B4B03EBC20252F8251004EB840203EB56
:10405000C2036A1C53F8220001F028F8824604EBE0
:104060008400334A02EBC00050F825100A9801F092
:104070001DF88346514600F0B5FD0746284600F07E
:10408000A7FE04EB84010890480000F0A1FE8346DF
:10409000284900F039FD8246089900F035FD814637
:1040A000394600F031FD01E037E002E080460126AC
:1040B00002E06D1C092D85DB00BF6EBB04EB8402A2
:1040C0001B4B03EBC202516A621C02EB820253F8E3
:1040D000320000F0EBFF824604EB8400144A02EB4E
:1040E000C000416A0A9800F0E1FF8346514600F0A3
:1040F00079FD074604EB8401480000F069FE834621
:104100000C4900F001FD82460B4900F0FDFC8146A0
:10411000394600F0F9FC804603E0641C052CFFF6EC
:104120003BAF00BF00BF40460BB0BDE8F08F0000C2
:10413000381B00200000C8420000104121F000425E
:10414000A2F16052B2F5801F01F0004328BFD2F106
:104150007F6C0BD95FEA001C43EAC20242EB50704D
:1041600018BF704728BF20F001007047B2F5801FCC
:10417000BCBF184670474FEA410C1CF5001F02D225
:10418000084600F053BF70B500F012FB0000008934
:10419000FFF7F6BF4FF00040A0F580007047000029
:1041A00010B591EA030F48BF83F0004300F19E83EE
:1041B000841A71EB030E05D2121943EB0E03001B98
:1041C00061EB0E01DFF820C14FEA1154A4EB135E3E
:1041D0001CEA430F18BF9CEA445F71D023EA0C032A
:1041E000DEF1200C21EA045143F4801332D322FA89
:1041F0000EFC10EB0C0023FA0EFC41EB0C01CEF18F
:10420000200C03FA0CFC10EB0C0051F10001B1F58D
:10421000801FCEF1200C32D201EB0451BDE81040DA
:1042200012FA0CF258BF7047401C38BF5FEA4202D6
:1042300018BF7047002814BF20F0010041F10001B1
:104240004FEA410313F5001F38BF7047A1F1C04189
:1042500000F0FCBA012A43EB0302AEF1200EDEF1BE
:104260001F0C32BF4FF0000C23FA0EF310EB0300CB
:1042700041EB0451B4EB115FD0D0A1EB045101F537
:104280008011490801EB0451BDE810405FEA30009D
:104290000CD350F1000038BF12FA0CFC06D1C9E76C
:1042A000401C38BF5FEA4202CAD1C3E74FEA41036C
:1042B00013F5001F38BF7047A1F1C04100F0C6BA26
:1042C0009CEA445F08D0BDE8104011EA5C0F04BFCF
:1042D00001F0004100207047BDE8104070B500F0CB
:1042E00067FA00BF64FBBE3E0000E0FF491058BF04
:1042F000C1F140415B1058BFC3F140438B42EFF323
:10430000008070472DE9C04130B4DFF8A0C23CEA1C
:10431000111418BF3CEA131400F0EC8081EA030585
:104320001CEA111444EAD57418BF1CEA131500F0F6
:10433000C780A4EB05044FF0004545EAC12145EADA
:10434000C32341EA505143EA525304F17F74994226
:1043500004F500344FEAC0204FEAC22208BF904261
:1043600000F09C804FEA13650FF24016765D4FEA2D
:10437000134506FB05F7C7F1807706FB07F74FEA01
:10438000D737A7FB03687642C8F58038A7FB06CE6F
:1043900038BFA8F1010807FB08E64FF0000EA6FBA6
:1043A000028CE6FB03CEDCF1000CCEF1004E38BFF0
:1043B000AEF1010EA6FB0C584FF000074FF00005C0
:1043C000E6FB0E87A1FB08C6A0FB07CE16EB0E0688
:1043D00045F10005E1FB076515F1E04E7EBFA4F550
:1043E00080345FEA46066D4116F1800745F100050D
:1043F0004FEA17274FEA066647EA0567A6F1DE4649
:10440000B6F1805F4FEA15251FD9384624F0010C1C
:1044100005EBC471BCF1FE6F01EB0C1102D8F0BCCE
:10442000BDE8008124425CBF01F5801E9EEAC47F86
:1044300002D4F0BCBDE80081244238D4F0BCA1F124
:10444000C041BDE8004100F001BA4FEAD22242EA81
:1044500043524FEAD323A7FB02864FEAD02040EA1B
:10446000415007FB03661EEA0E0F4FEAD12105FB00
:10447000026658BFA6EB0056B6EB00564FEA520E46
:104480004EEAC37E18EB0E0E56EB530EBDD518EB5D
:1044900002085E417F1C55F10005B6E74FF4801518
:1044A0004FF000074FF000064FF00008ADE7F0BCFA
:1044B0004FF0000001F1C04101F00041BDE8008172
:1044C00011EA0C1F0CEA131500D00CE013EA0C1FC4
:1044D00000F025804FF00000F0BC81EA030101F0FC
:1044E0000041BDE80081F0BCBDE8004181EA030164
:1044F00000F0ACB9F0BCBDE8004170B500F058F96F
:10450000097EFC3E00F007B881EA03014FF000008D
:1045100001F00041704781EA030100F097B9F0BC57
:10452000BDE800414FF0000021497047FFFDFBF955
:10453000F7F5F4F2F0EEEDEBE9E8E6E4E3E1E0DED6
:10454000DDDBDAD8D7D5D4D3D1D0CFCDCCCBCAC848
:10455000C7C6C5C4C2C1C0BFBEBDBCBBBAB9B8B76F
:10456000B6B5B4B3B2B1B0AFAEADACABAAA9A8A862
:10457000A7A6A5A4A3A3A2A1A09F9F9E9D9C9C9B30
:104580009A999998979796959594939392919190DB
:104590008F8F8E8E8D8C8C8B8B8A8989888887876C
:1045A0008685858484838382828181800000FF07E1
:1045B0000000F87F10F0004248BF4042B0FA80F39C
:1045C00010FA03F10AD0C3F11D0303F580634FEA2B
:1045D000415002EB035202EBD12170474FF0000033
:1045E0007047000051EA030C17D41CF5801F58BF18
:1045F000BCF5801F00F10680994218BF704708BFC4
:104600009042704707D711F5801F58BF13F5801FE0
:1046100019D499427047894270471CF5801F08D50C
:10462000BCF5801FF7D58B4218BF704708BF824288
:1046300070474FF4001C1CEB410F38BF1CEB430FBD
:1046400001D28B42704770B500F0B2F89224490055
:104650004FF000514FF08053FFF748BEDFF848C1DC
:1046600070B51CEA111E1EBF1CEA13159EEA0C0F42
:1046700095EA0C0F00F06F8081EA030423EA4C13E3
:104680004EEAD47E21EA4C1141F4801143F48013A8
:10469000AE44A1FB024CA0FB0365AEF17F7E361950
:1046A00055EB0C05A1FB034C4CF10003A0FB021CD5
:1046B00016EB0C06654153F10003094218BF46F0A2
:1046C000010613F4007F0BD14FEA03314FEA0530A6
:1046D000340341EA155140EA16506FF003020AE034
:1046E0004FEAC3214FEAC520F40241EA555140EA9E
:1046F00056506FF0020202EB2E4201EB025585EAA2
:10470000CE710AD05FEA440C18BF24F0004450F187
:10471000000041F1000120EAD47040F2FE7C6245C5
:1047200000D270BDA84214BF4FF080444FF0404407
:10473000002E08BF0024BEF1806FA8BFA1F1C041C8
:10474000BDE8704080F282804FF0000001F1C0416E
:1047500001F0004170479EEA0C0F0CEA131518BFD8
:1047600095EA0C0F06D04FF0000081EA030E0EF020
:10477000004170BD00F01CF88900013E00F007B850
:1047800000F009B84FEA430C5FEA5C5C08D081EAAC
:10479000030100F05BB84FEA410C5FEA5C5CF6D1C4
:1047A0004FF00000014970470000FF070000F87F4C
:1047B0000EF1020E2EF0030E5EF8046B364205D4A5
:1047C000012A43EB030515F5001F12D8012841EB20
:1047D000010C1CF5001F0CD80ED14FEAD17C15F549
:1047E000001F0CEB4C0C0CF1020C08BF4CEBD37C03
:1047F00004E04FF0080C01E04FEAD37C0CEB4C05D1
:1048000026FA05F606F00706B6F1040C06D20EEB02
:10481000860CBDE870404CF0010C6047DFE80CF0FE
:10482000090B02024FF000414FF00000A1F50021FA
:1048300070BD19461046012851EB010418BFD4F58C
:10484000001484BF002001F0004170BD0808A0F5ED
:1048500000114FEA3101704753EA010C17D41CF5DF
:10486000801F58BFBCF5801F00F106808B4218BF27
:10487000704708BF8242704707D713F5801F58BFA3
:1048800011F5801F19D48B4270479B4270471CF56D
:10489000801F08D5BCF5801FF7D5994218BF704717
:1048A00008BF904270474FF4001C1CEB430F38BF09
:1048B0001CEB410F01D2994270470FB40CBC03BCF2
:1048C000FFF7C1BE91EA030F10B581F000413FF53B
:1048D0006FAC83F0004300F009B8000010B591EA16
:1048E000030F48BF83F000433FF562AC841A71EBBD
:1048F000030E07D212198EF0004E43EB0E03001B7D
:1049000061EB0E01DFF8A4C14FEA1154A4EB135E72
:104910001CEA430F18BF9CEA445F00F0B08023EA12
:104920006C03524221EA0451C3EB6C0338BF5B1E97
:10493000DEF1200C25D322FA0EFC10EB0C0043FA1A
:104940000EFC41EB0C01CEF1200C03FA0CFC10EB39
:104950000C0051F10001CEF1200C29D401EB0451DF
:10496000BDE8104012FA0CF258BF7047401C1CBF43
:10497000B2F1004F704700280CBF491C20F0010025
:10498000704712EB020C43EB030218BF4FF0010C0F
:104990004CEA4202AEF1200EDEF11E0C54D943FA6D
:1049A0000EFC10EB0C0051F1FF31CEF11E0CD5D5F1
:1049B0000CF1010C12FA0CFC404141EB010101EB3E
:1049C000445E5FEA5E5E10D901EB0451BDE8104021
:1049D00010EBDC7038BFBCF1004F18BF70470028E7
:1049E0000CBF491C20F00100704730D24FEAD42E92
:1049F00011F5001124F400641BD0B1FA81F20B3AD6
:104A0000A41AA41ED2F12003914030FA03F31943F3
:104A1000904001EBCE71002C01EB0451BDE8104039
:104A2000A8BF704701F1C0414FF0000001F0004104
:104A30007047B0FA80F310FA03F100D110BDE41A08
:104A4000173C4805C90AE4E701EB045110BD4910C1
:104A500001EB0451BDE810404FEA300002E04FF096
:104A6000000170474A0008BF0042F8D0B2F5001FAD
:104A700028BF704701F000414FF0000070479CEAEA
:104A8000445F07D0BDE8104011EA5C0F04BF00216D
:104A900000207047BDE8104070B5FFF789FE00BFE9
:104AA00040DFF63E83F00041104670470000E0FF13
:104AB00043004FEAD30C4FEA3C0C43401FBF400772
:104AC0000CF1605113F0FE4F70471CF0006F03D1E2
:104AD00000200CF0004170470CF0004343EA507096
:104AE00010B540EACC0000F054FA00BF000000927C
:104AF0004FEA0001FFF7AABE4FF000414FF000005F
:104B0000A1F500217047000090EA010F48BF81F035
:104B1000004100F1D282421A3CBF801A89184FEA44
:104B2000D0524FF07F4C1CEA410FA2EBD15318BF7B
:104B30009CEA026F00F03B804FF0004C4CEA0020F2
:104B40004CEA012121FA03FC10EB0C0C1ED202F1FD
:104B5000FF325FEA1C2040EBC25038BF70471CF0A8
:104B60007F0F4FEA400C18BFBCF17F4F38BF704732
:104B7000C3F12003994008BF20F00100BCF17F4F32
:104B800038BF7047A0F1C04000F050BA4FEA3C0077
:104B9000000A40EBC25028BF1CF0FF0F4FEA400C48
:104BA000E6D018BFBCF17F4F38BF7047EAE79CEAF8
:104BB000026F05D010EA5C0F08BF00F0004070479C
:104BC00010B500F0E6F900BF64FBBE3E401058BFD0
:104BD000C0F14040491058BFC1F140418142EFF35C
:104BE000008070474FF47F0C1CEAD0121EBF1CEAF5
:104BF000D11392EA0C0F93EA0C0F00F0858090EA33
:104C0000010F48BF42F4807240F4000C41F40000F0
:104C10002CF07F4120F07F4000B58142A2EB0302DF
:104C20000FF2081CACEB504EC0F100009EF800E003
:104C30004FEA4E0E00FB0EFC38BF49004FEA2C1C19
:104C400002F5FA020CFB0EF34FEACE1E4FEA112CCE
:104C50004FEAC1210EEB635E42EB22420EFB0CFCDD
:104C60004FEA1C5300FB03114FEA112C4FEA0131AC
:104C70000EFB0CFC4FEADC4C00FB0C11C14228BFC0
:104C800009184CEB03335DF804EB10EB410143EBE7
:104C9000C250B2F57C0F38BF704729D512F0F00F23
:104CA0001CBF00F1C04000F00040704700818283CB
:104CB0008485868788898B8C8D8E8F91929395962B
:104CC00097999A9C9D9FA0A2A3A5A7A8AAACAEB0B5
:104CD000B2B3B5B7B9BCBEC0C2C5C7C9CCCED1D4BA
:104CE000D7D9DCDFE2E6E9ECF0F3F7FAFE000000EA
:104CF0004FEA400C0CF1807CBCF17E4F28BF70471E
:104D0000B0F1C04000F092B990EA010F0CEAD11363
:104D100048BF42F48072624538BF634507D213F43E
:104D20007F0F16D080EA010000F00040704710B5F8
:104D300000F02FF9097EFC3E00F005B880EA010082
:104D400000F00040704780EA010000F0004000F0F1
:104D50006DB912F47F0F04BF0248704780EA01006A
:104D600000F064B90000C07F50EA010C00F113802C
:104D70001CF5000F58BFBCF5000F01D488427047E6
:104D800007D710F5000F58BF11F5000F15D4884252
:104D90007047894270471CF5000F04D5BCF5000F21
:104DA000F7D5814270474FF0807C1CEB400F38BF35
:104DB0001CEB410F01D28142704710B500F0E9F8B9
:104DC000922449004FF000504FF08051FFF7FEBE93
:104DD00010F0004148BF4042B0FA80F310FA03F2ED
:104DE000C3F19D030BD051EAC35101EB12205306CE
:104DF00038BF704700F1010008BF20F00100704784
:104E0000B0FA80F310FA03F2C3F19D030AD0D9057A
:104E100001EB1220530638BF704700F1010008BFB4
:104E200020F001007047000050EA010C00F11380EF
:104E30001CF5000F58BFBCF5000F01D48842704725
:104E400007D710F5000F58BF11F5000F15D4884291
:104E50007047894270471CF5000F04D5BCF5000F60
:104E6000F7D5814270474FF0807C1CEB400F38BF74
:104E70001CEB410F01D28142704710B500F089F858
:104E8000922449004FF000504FF08051FFF79EBE32
:104E90004FF47F0C1CEAD0121EBF1CEAD11392EA19
:104EA0000C0F93EA0C0F00F0478090EA010F48BF07
:104EB00042F480724FF0004C4CEA00204CEA012191
:104EC00002EB0302A0FB0113A2F50002002918BFA8
:104ED00043F001035B0028BF4FEA330342EB224259
:104EE0005FEA132C4CEBC2502EBFBCEB436FB2F504
:104EF0007C0F70474FEA036CBCF1004F08BF20F0F5
:104F00000100B2F57C0F38BF70470BD582F0FF026D
:104F100012F5803FC8BF704700F1C040D8BF00F015
:104F20000040704700F5000C5FEA4C0C48BF70472A
:104F3000B0F1C04000F07AB890EA010F0CEAD1134A
:104F400048BF42F48072624538BF634504D280EAAC
:104F5000010000F00040704710B500F01AF800BFE3
:104F60008900013E00F007B800F009B85FEA410C83
:104F70005FEA1C6C08D080EA010000F057B85FEAD5
:104F8000400C5FEA1C6CF6D14FF00040A0F58000A9
:104F900070470EF1020E2EF0030E5EF8044B244211
:104FA00004D44FEA4102B2F17F4F11D84FEA4003D7
:104FB000B3F17F4F0CD80ED14FEAD07CB2F17F4FC6
:104FC0000CEB4C0C0CF1020C08BF4CEBD17C04E058
:104FD0004FF0080C01E04FEAD17C0CEB4C0324FAB3
:104FE00003F404F00704B4F1040C06D20EEB840CB5
:104FF000BDE810404CF0010C6047DFE80CF00708FA
:1050000002024FF00040A0F5800010BD08464200AB
:1050100018BFD2F1807288BF00F0004010BD10B5FB
:10502000FBF77EF94FF00001016010BDFF2141EA5E
:10503000D050C005704751EA000C00F113801CF5F8
:10504000000F58BFBCF5000F01D48142704707D74D
:1050500011F5000F58BF10F5000F15D481427047AD
:10506000894270471CF5000F04D5BCF5000FF7D539
:10507000884270474FF0807C1CEB410F38BF1CEB1F
:10508000400F01D28842704780EA010081EA0001A6
:1050900080EA0100FFF7F1BE80F0004090EA010FC6
:1050A0007FF539AD81F0004100F007B890EA010FBB
:1050B00048BF81F000413FF52EAD421A04D882F07E
:1050C0000042A0EB020011444FEAD0524FF07F4C57
:1050D0001CEA410FA2EBD15318BF9CEA026F4AD0E1
:1050E0004FF0004C4CEA00204CEA012121FA03FC6D
:1050F000B0EB0C0C0FD412F0FE0F36D05FEA4C0070
:105100001DD5001240EBC25038BF70471CF03F0F56
:1051100018BF70470BE0A2F101025FEA1C2040EBD0
:10512000C25038BF70471CF07F0F18BF7047C3F1E3
:105130002003994014BF401E20F0010070478008F2
:105140004FEA122308BF7047B0FA80FCA2EB0C02B2
:10515000CCF1280C60FA0CF093EA122F04BF00EB9C
:10516000C25070474FEAC3707047130A5FEADC1001
:1051700008BF7047F6E79CEA026F04D010EA5C0FA4
:1051800008BF0020704710B5FFF703FF40DFF63E71
:1051900081F00040704700003D0AD73F85EB714029
:1051A000EC5180401F85DB400000E040B81EED4020
:1051B00048E112410000204133334741DC510008EF
:1051C000000000208C1C00006C0100082C6C000802
:1051D0008C1C002094150000D0010008401703002B
:1051E0000000313230323136303631383038332EFB
:1051F000302E30000610093138323330303031096A
:10520000200B303600323130300032302510093179
:10521000333039303433323C330001032004008012
:10522000250D23803F134108610C01121043E0401B
:1052300008000422C84100016004F000084A21313E
:1052400012427012437403F444000116047412FFF6
:1052500001254214088FC2D53F3D0A7750100E80B9
:1052600040295CDF400AD7E340C3F5F00C200B1760
:1052700041B81E254152B856412430048FC27524CE
:1052800010086666DE4048E1E20C12F00C16164F7C
:1052900030062441295C53243004E17A742410142C
:1052A000A470DD4085EBE1403D0AEF40AE4715417B
:1052B00048E1222832504830045C8F72241028F6CE
:1052C00028DC40D7A3E0408FC2ED4014AE1341C3A9
:1052D000F520417B144A413D0AD73F85EB7140ECF4
:1052E0005180401F85DB681006E040B81EED741247
:1052F000126C300620413333472443AE4724100458
:105300003333DB401816DF40CDCCEC40713D124109
:105310001F851F41D7A34441EC51D8441270CC12D1
:1053200080B012DA8C12DF7412EC4C100A11417149
:105330003D1E4114AE3F9832DA24140C9A998140F4
:105340005C8FDA4052B8DE0012EB9C10061041AEC2
:10535000471DD8133B41A8399430045C8F824869BB
:10536000487804295C0F7C1138312430040AD78333
:105370009069A67004B81E0D2430045C8FE248507A
:1053800004B81E85D849EA70047B140E243004B892
:105390001EE56C340452B886206148D8049A990DF1
:1053A000E816A0B01620544FA041040326F01C19A3
:1053B000D7124804127004128C0412A004080623A9
:1053C000B44208C448E710771DC24944A8A649441E
:1053D0004C8F4944E37549447B5C4944124349443A
:1053E000AA29494442104944D9F6484471DD484449
:1053F00031C04A44C9A64A44608D4A44F8734A44BD
:105400008F5A4A4427414A44BE274A44560E4A44CA
:10541000EEF4494485DB494414BE4B44ACA44B44F0
:10542000548B4B44EC714B4483584B442B3F4B44BF
:10543000C3254B445A0C4B44F2F24A449AD94410C7
:10544000E2BB4C448FA24C4437894C44CF6F4C4450
:1054500066564C440E3D4C44A6234C443D0A4C44F5
:10546000D5F04B447DD74B44BAB94D4462A04D446E
:10547000FA864D44A26D4D4439544D44E13A4D44B1
:1054800079214D4421084D44B8EE4C4460D54C443C
:105490005CB74E44049E4E449C844E44446B4E4440
:1054A000EC514E4493384E442B1F4E44D3054E448A
:1054B0007BEC4D4412D34D44FEB44F44A69B4F4465
:1054C0003D824F44E5684F448D4F4F4435364F443D
:1054D000CD1C4F4475034F441DEA4E44B4D04E4496
:1054E0007FB2504427995044CF7F50447766504450
:1054F0001F4D5044C73350445E1A50440601504477
:10550000AEE74F4456CE4F44DFAF514487965144E7
:105510002F7D5144D76351447F4A51443731514420
:10552000DF17181026FE50442FE55044D7CB5044C7
:105530003FAD5244E79352448F7A5244376152440C
:10554000DF475244982E52443F15181006FB514431
:105550008FE23812C940101EAA534427915344DFEA
:10556000775344875E53442F455344E72B53448F6E
:1055700012534437F93812DF38142BC652449EA711
:105580005444568E5444FE745444B65B54445E42B4
:10559000544417295444BE0F544477F653441FDD36
:1055A0005344D7C3538C14825544758B55441D7294
:1055B0005544D55855447D3F554435265544DD0C5A
:1055C000554496F354443DDA5444F6C05444AAA1D9
:1055D0005644628856440A6F5644C35556447B3C31
:1055E000564433235644DB09564493F055444CD774
:1055F0005544F4BD5544989E57443F855744086C24
:105600005744B05257446839574421205744D9066B
:10561000574491ED564439D45644F2BA5644649BEB
:1056200058441D825844D568586410195844463669
:105630005844FE1C5844B60358446FEA574427D1D7
:105640005744DFB73C104E985944D97E5944916570
:1056500059444A4C594402335944CB1959448300A4
:1056600059443BE75844F4CD5844ACB45844CD9425
:105670005A44857B5A443D625A4406495A44BE2FD7
:105680005A4477165A442FFD5944E7E35944A0CAB7
:10569000594468B104186B915B4421785B44E95E1E
:1056A0005B44A2455B445A2C5B4423135B44DBF907
:1056B0005A4493E05A444CC75A4414AE5A44E38DBA
:1056C0005C44AC745C44645B5C442D425C44E528FF
:1056D0005C44AE0F5C4466F65B442FDD5B44E7C37D
:1056E0005B44B0AA5B444E8A5D4406715D44CF576B
:1056F0005D44983E5D4450255D44190C5D44E1F2E3
:105700005CC818165C4462C05C441BA75C44988665
:105710005E44606D5E4429545EA0185A5E44AA211E
:105720005E4473085E443BEF5D4404D65D44BCBCFC
:105730005D4485A35D44D1825F449A695F446250B1
:105740005F442B375F44F41D5F44BC045F4475EB3A
:105750005E443DD25E4406B95E44CF9F5E440A7FFC
:105760006044D36560449C4C6044643360442D1AAB
:105770006044F6006078142A5F4477CE5F443FB5FA
:105780005F44089C5F44127B6144DB616144A44830
:1057900061447D2F6144461661440EFD6044D7E3A9
:1057A00060141822604479B16044429860441B77C9
:1057B0006244E35D6244AC446244852B62444E1211
:1057C000624417F96150183A6144A8C6614481AD3A
:1057D00061444A94614412736344DB596344B440A6
:1057E00063447D276344460E63441FF56244E7DB50
:1057F0006244B0C2624479A9624452906244E96E44
:105800006428187E64448B3C6444642364442D0AF9
:10581000644406F16344CFD76344A8BE634471A5D2
:1058200063444A8C6344A06A6544795165444238B4
:1058300065441B1F6544F4056544CDEC644496D370
:1058400064446FBA644448A1644410886444566652
:1058500066442F4D6644F8336644D11A6644AA0163
:10586000664483E865444CCF654425B66544FE9C98
:105870006544C7836544FC616744D5486744AE2FDF
:1058800067001C32674450FD664429E4664402CB3D
:105890006644DBB16644A49866447D7F6644715DCE
:1058A00068444A446844232B6844FC116844D5F892
:1058B0006744BEDF673C031006674471AD67EC10B8
:1058C0002D6744237B6744F6586944CF3F6944A859
:1058D000266944810D69445AF4684433DB68440CFA
:1058E000C26844E5A86844BE8F684498764C10129C
:1058F000546A44233B6A440C226A44E5086A44BE65
:10590000EF3412D63412BD341C07A46944338B69BA
:1059100064031CAA69449E4F6B4477366B44601D38
:105920006B4439046B4412EB6A44FCD16A44D5B829
:105930006A44AE9F6A4487866A44716D6A44E14A4C
:105940006C44BA316C44A4186C447DFF6B4466E629
:105950006B443FCD6B4419B46B44029B6B44DB81B9
:105960006B44C5686B4404466D44EE2C6D44C7130C
:105970006D44B0FA6C4489E16C4473C86C445CAF0C
:105980006C4435966C441F7D6C44F8636C4406414E
:105990006E44F0276E44D90E6E44B2F56D449CDC23
:1059A0006D4485C36D446FAA6D4458916D44317840
:1059B0006D441B5F6D44083C6F44F2226FD80314A2
:1059C0000E6F44B4F06E449ED76E4487BE6EB01C1A
:1059D000266E445A8C6E4433736E441D5A6E44FADC
:1059E000367044E31D7044CD047044B6EB6F44A0A0
:1059F000D26F4489B96F8C05100D6F444C876F448A
:105A0000356E6F441F55481C1B317144C5187144D5
:105A1000AEFF704498E6704481CD70446AB470441F
:105A2000549B706405146270442769704410507070
:105A3000449C2C7244851372446FFA714468E1717E
:105A40004452C871443BAF7144259671440E7D7138
:105A50004408647144F24A71444C277344350E7310
:105A6000442FF5724419DC724402C37244FCA972DB
:105A700044E5907244CF777244B85E7244B2457286
:105A800044DB217444D50874881C867344B8D673EB
:105A900044A2BD73449CA47344858B73447F72738A
:105AA0004468597344624073446A1C7544640375C6
:105AB000445EEA744448D1744442B874442B9F74E1
:105AC00044258674440E6D744408547444F23A7448
:105AD00044E9167644E3FD7544CDE47544C7CB75BF
